{
  "_format": "hh-sol-artifact-1",
  "contractName": "ArGram",
  "sourceName": "contracts/NFTcontract.sol",
  "abi": [
    {
      "inputs": [],
      "stateMutability": "nonpayable",
      "type": "constructor"
    },
    {
      "anonymous": false,
      "inputs": [
        {
          "indexed": true,
          "internalType": "address",
          "name": "owner",
          "type": "address"
        },
        {
          "indexed": true,
          "internalType": "address",
          "name": "approved",
          "type": "address"
        },
        {
          "indexed": true,
          "internalType": "uint256",
          "name": "tokenId",
          "type": "uint256"
        }
      ],
      "name": "Approval",
      "type": "event"
    },
    {
      "anonymous": false,
      "inputs": [
        {
          "indexed": true,
          "internalType": "address",
          "name": "owner",
          "type": "address"
        },
        {
          "indexed": true,
          "internalType": "address",
          "name": "operator",
          "type": "address"
        },
        {
          "indexed": false,
          "internalType": "bool",
          "name": "approved",
          "type": "bool"
        }
      ],
      "name": "ApprovalForAll",
      "type": "event"
    },
    {
      "anonymous": false,
      "inputs": [
        {
          "indexed": true,
          "internalType": "address",
          "name": "previousOwner",
          "type": "address"
        },
        {
          "indexed": true,
          "internalType": "address",
          "name": "newOwner",
          "type": "address"
        }
      ],
      "name": "OwnershipTransferred",
      "type": "event"
    },
    {
      "anonymous": false,
      "inputs": [
        {
          "indexed": true,
          "internalType": "address",
          "name": "from",
          "type": "address"
        },
        {
          "indexed": true,
          "internalType": "address",
          "name": "to",
          "type": "address"
        },
        {
          "indexed": true,
          "internalType": "uint256",
          "name": "tokenId",
          "type": "uint256"
        }
      ],
      "name": "Transfer",
      "type": "event"
    },
    {
      "inputs": [
        {
          "internalType": "address",
          "name": "to",
          "type": "address"
        },
        {
          "internalType": "uint256",
          "name": "tokenId",
          "type": "uint256"
        }
      ],
      "name": "approve",
      "outputs": [],
      "stateMutability": "nonpayable",
      "type": "function"
    },
    {
      "inputs": [
        {
          "internalType": "address",
          "name": "owner",
          "type": "address"
        }
      ],
      "name": "balanceOf",
      "outputs": [
        {
          "internalType": "uint256",
          "name": "",
          "type": "uint256"
        }
      ],
      "stateMutability": "view",
      "type": "function"
    },
    {
      "inputs": [
        {
          "internalType": "uint256",
          "name": "tokenId",
          "type": "uint256"
        }
      ],
      "name": "getApproved",
      "outputs": [
        {
          "internalType": "address",
          "name": "",
          "type": "address"
        }
      ],
      "stateMutability": "view",
      "type": "function"
    },
    {
      "inputs": [
        {
          "internalType": "address",
          "name": "owner",
          "type": "address"
        },
        {
          "internalType": "address",
          "name": "operator",
          "type": "address"
        }
      ],
      "name": "isApprovedForAll",
      "outputs": [
        {
          "internalType": "bool",
          "name": "",
          "type": "bool"
        }
      ],
      "stateMutability": "view",
      "type": "function"
    },
    {
      "inputs": [
        {
          "internalType": "address",
          "name": "recipient",
          "type": "address"
        },
        {
          "internalType": "string",
          "name": "_tokenURI",
          "type": "string"
        }
      ],
      "name": "mintNFT",
      "outputs": [
        {
          "internalType": "uint256",
          "name": "",
          "type": "uint256"
        }
      ],
      "stateMutability": "nonpayable",
      "type": "function"
    },
    {
      "inputs": [],
      "name": "name",
      "outputs": [
        {
          "internalType": "string",
          "name": "",
          "type": "string"
        }
      ],
      "stateMutability": "view",
      "type": "function"
    },
    {
      "inputs": [],
      "name": "owner",
      "outputs": [
        {
          "internalType": "address",
          "name": "",
          "type": "address"
        }
      ],
      "stateMutability": "view",
      "type": "function"
    },
    {
      "inputs": [
        {
          "internalType": "uint256",
          "name": "tokenId",
          "type": "uint256"
        }
      ],
      "name": "ownerOf",
      "outputs": [
        {
          "internalType": "address",
          "name": "",
          "type": "address"
        }
      ],
      "stateMutability": "view",
      "type": "function"
    },
    {
      "inputs": [],
      "name": "renounceOwnership",
      "outputs": [],
      "stateMutability": "nonpayable",
      "type": "function"
    },
    {
      "inputs": [
        {
          "internalType": "address",
          "name": "from",
          "type": "address"
        },
        {
          "internalType": "address",
          "name": "to",
          "type": "address"
        },
        {
          "internalType": "uint256",
          "name": "tokenId",
          "type": "uint256"
        }
      ],
      "name": "safeTransferFrom",
      "outputs": [],
      "stateMutability": "nonpayable",
      "type": "function"
    },
    {
      "inputs": [
        {
          "internalType": "address",
          "name": "from",
          "type": "address"
        },
        {
          "internalType": "address",
          "name": "to",
          "type": "address"
        },
        {
          "internalType": "uint256",
          "name": "tokenId",
          "type": "uint256"
        },
        {
          "internalType": "bytes",
          "name": "data",
          "type": "bytes"
        }
      ],
      "name": "safeTransferFrom",
      "outputs": [],
      "stateMutability": "nonpayable",
      "type": "function"
    },
    {
      "inputs": [
        {
          "internalType": "address",
          "name": "operator",
          "type": "address"
        },
        {
          "internalType": "bool",
          "name": "approved",
          "type": "bool"
        }
      ],
      "name": "setApprovalForAll",
      "outputs": [],
      "stateMutability": "nonpayable",
      "type": "function"
    },
    {
      "inputs": [
        {
          "internalType": "string",
          "name": "baseUri",
          "type": "string"
        }
      ],
      "name": "setBaseURI",
      "outputs": [],
      "stateMutability": "nonpayable",
      "type": "function"
    },
    {
      "inputs": [
        {
          "internalType": "bytes4",
          "name": "interfaceId",
          "type": "bytes4"
        }
      ],
      "name": "supportsInterface",
      "outputs": [
        {
          "internalType": "bool",
          "name": "",
          "type": "bool"
        }
      ],
      "stateMutability": "view",
      "type": "function"
    },
    {
      "inputs": [],
      "name": "symbol",
      "outputs": [
        {
          "internalType": "string",
          "name": "",
          "type": "string"
        }
      ],
      "stateMutability": "view",
      "type": "function"
    },
    {
      "inputs": [
        {
          "internalType": "uint256",
          "name": "tokenId",
          "type": "uint256"
        }
      ],
      "name": "tokenURI",
      "outputs": [
        {
          "internalType": "string",
          "name": "",
          "type": "string"
        }
      ],
      "stateMutability": "view",
      "type": "function"
    },
    {
      "inputs": [
        {
          "internalType": "address",
          "name": "from",
          "type": "address"
        },
        {
          "internalType": "address",
          "name": "to",
          "type": "address"
        },
        {
          "internalType": "uint256",
          "name": "tokenId",
          "type": "uint256"
        }
      ],
      "name": "transferFrom",
      "outputs": [],
      "stateMutability": "nonpayable",
      "type": "function"
    },
    {
      "inputs": [
        {
          "internalType": "address",
          "name": "newOwner",
          "type": "address"
        }
      ],
      "name": "transferOwnership",
      "outputs": [],
      "stateMutability": "nonpayable",
      "type": "function"
    }
  ],
  "bytecode": "0x60806040523480156200001157600080fd5b506040518060400160405280600681526020017f41524752414d00000000000000000000000000000000000000000000000000008152506040518060400160405280600681526020017f41524752414d000000000000000000000000000000000000000000000000000081525081600090816200008f919062000412565b508060019081620000a1919062000412565b505050620000c4620000b8620000ca60201b60201c565b620000d260201b60201c565b620004f9565b600033905090565b6000600660009054906101000a900473ffffffffffffffffffffffffffffffffffffffff16905081600660006101000a81548173ffffffffffffffffffffffffffffffffffffffff021916908373ffffffffffffffffffffffffffffffffffffffff1602179055508173ffffffffffffffffffffffffffffffffffffffff168173ffffffffffffffffffffffffffffffffffffffff167f8be0079c531659141344cd1fd0a4f28419497f9722a3daafe3b4186f6b6457e060405160405180910390a35050565b600081519050919050565b7f4e487b7100000000000000000000000000000000000000000000000000000000600052604160045260246000fd5b7f4e487b7100000000000000000000000000000000000000000000000000000000600052602260045260246000fd5b600060028204905060018216806200021a57607f821691505b60208210810362000230576200022f620001d2565b5b50919050565b60008190508160005260206000209050919050565b60006020601f8301049050919050565b600082821b905092915050565b6000600883026200029a7fffffffffffffffffffffffffffffffffffffffffffffffffffffffffffffffff826200025b565b620002a686836200025b565b95508019841693508086168417925050509392505050565b6000819050919050565b6000819050919050565b6000620002f3620002ed620002e784620002be565b620002c8565b620002be565b9050919050565b6000819050919050565b6200030f83620002d2565b620003276200031e82620002fa565b84845462000268565b825550505050565b600090565b6200033e6200032f565b6200034b81848462000304565b505050565b5b8181101562000373576200036760008262000334565b60018101905062000351565b5050565b601f821115620003c2576200038c8162000236565b62000397846200024b565b81016020851015620003a7578190505b620003bf620003b6856200024b565b83018262000350565b50505b505050565b600082821c905092915050565b6000620003e760001984600802620003c7565b1980831691505092915050565b6000620004028383620003d4565b9150826002028217905092915050565b6200041d8262000198565b67ffffffffffffffff811115620004395762000438620001a3565b5b62000445825462000201565b6200045282828562000377565b600060209050601f8311600181146200048a576000841562000475578287015190505b620004818582620003f4565b865550620004f1565b601f1984166200049a8662000236565b60005b82811015620004c4578489015182556001820191506020850194506020810190506200049d565b86831015620004e45784890151620004e0601f891682620003d4565b8355505b6001600288020188555050505b505050505050565b612ecd80620005096000396000f3fe608060405234801561001057600080fd5b50600436106101165760003560e01c8063715018a6116100a2578063b88d4fde11610071578063b88d4fde146102cb578063c87b56dd146102e7578063e985e9c514610317578063eacabe1414610347578063f2fde38b1461037757610116565b8063715018a6146102695780638da5cb5b1461027357806395d89b4114610291578063a22cb465146102af57610116565b806323b872dd116100e957806323b872dd146101b557806342842e0e146101d157806355f804b3146101ed5780636352211e1461020957806370a082311461023957610116565b806301ffc9a71461011b57806306fdde031461014b578063081812fc14610169578063095ea7b314610199575b600080fd5b61013560048036038101906101309190611be3565b610393565b6040516101429190611c2b565b60405180910390f35b610153610475565b6040516101609190611cd6565b60405180910390f35b610183600480360381019061017e9190611d2e565b610507565b6040516101909190611d9c565b60405180910390f35b6101b360048036038101906101ae9190611de3565b61054d565b005b6101cf60048036038101906101ca9190611e23565b610664565b005b6101eb60048036038101906101e69190611e23565b6106c4565b005b61020760048036038101906102029190611fab565b6106e4565b005b610223600480360381019061021e9190611d2e565b6106ff565b6040516102309190611d9c565b60405180910390f35b610253600480360381019061024e9190611ff4565b610785565b6040516102609190612030565b60405180910390f35b61027161083c565b005b61027b610850565b6040516102889190611d9c565b60405180910390f35b61029961087a565b6040516102a69190611cd6565b60405180910390f35b6102c960048036038101906102c49190612077565b61090c565b005b6102e560048036038101906102e09190612158565b610922565b005b61030160048036038101906102fc9190611d2e565b610984565b60405161030e9190611cd6565b60405180910390f35b610331600480360381019061032c91906121db565b610af6565b60405161033e9190611c2b565b60405180910390f35b610361600480360381019061035c919061221b565b610b8a565b60405161036e9190612030565b60405180910390f35b610391600480360381019061038c9190611ff4565b610bca565b005b60007f80ac58cd000000000000000000000000000000000000000000000000000000007bffffffffffffffffffffffffffffffffffffffffffffffffffffffff1916827bffffffffffffffffffffffffffffffffffffffffffffffffffffffff1916148061045e57507f5b5e139f000000000000000000000000000000000000000000000000000000007bffffffffffffffffffffffffffffffffffffffffffffffffffffffff1916827bffffffffffffffffffffffffffffffffffffffffffffffffffffffff1916145b8061046e575061046d82610c4d565b5b9050919050565b606060008054610484906122a6565b80601f01602080910402602001604051908101604052809291908181526020018280546104b0906122a6565b80156104fd5780601f106104d2576101008083540402835291602001916104fd565b820191906000526020600020905b8154815290600101906020018083116104e057829003601f168201915b5050505050905090565b600061051282610cb7565b6004600083815260200190815260200160002060009054906101000a900473ffffffffffffffffffffffffffffffffffffffff169050919050565b6000610558826106ff565b90508073ffffffffffffffffffffffffffffffffffffffff168373ffffffffffffffffffffffffffffffffffffffff16036105c8576040517f08c379a00000000000000000000000000000000000000000000000000000000081526004016105bf90612349565b60405180910390fd5b8073ffffffffffffffffffffffffffffffffffffffff166105e7610d02565b73ffffffffffffffffffffffffffffffffffffffff161480610616575061061581610610610d02565b610af6565b5b610655576040517f08c379a000000000000000000000000000000000000000000000000000000000815260040161064c906123db565b60405180910390fd5b61065f8383610d0a565b505050565b61067561066f610d02565b82610dc3565b6106b4576040517f08c379a00000000000000000000000000000000000000000000000000000000081526004016106ab9061246d565b60405180910390fd5b6106bf838383610e58565b505050565b6106df83838360405180602001604052806000815250610922565b505050565b6106ec611151565b80600990816106fb9190612639565b5050565b60008061070b836111cf565b9050600073ffffffffffffffffffffffffffffffffffffffff168173ffffffffffffffffffffffffffffffffffffffff160361077c576040517f08c379a000000000000000000000000000000000000000000000000000000000815260040161077390612757565b60405180910390fd5b80915050919050565b60008073ffffffffffffffffffffffffffffffffffffffff168273ffffffffffffffffffffffffffffffffffffffff16036107f5576040517f08c379a00000000000000000000000000000000000000000000000000000000081526004016107ec906127e9565b60405180910390fd5b600360008373ffffffffffffffffffffffffffffffffffffffff1673ffffffffffffffffffffffffffffffffffffffff168152602001908152602001600020549050919050565b610844611151565b61084e600061120c565b565b6000600660009054906101000a900473ffffffffffffffffffffffffffffffffffffffff16905090565b606060018054610889906122a6565b80601f01602080910402602001604051908101604052809291908181526020018280546108b5906122a6565b80156109025780601f106108d757610100808354040283529160200191610902565b820191906000526020600020905b8154815290600101906020018083116108e557829003601f168201915b5050505050905090565b61091e610917610d02565b83836112d2565b5050565b61093361092d610d02565b83610dc3565b610972576040517f08c379a00000000000000000000000000000000000000000000000000000000081526004016109699061246d565b60405180910390fd5b61097e8484848461143e565b50505050565b606061098f8261149a565b6109ce576040517f08c379a00000000000000000000000000000000000000000000000000000000081526004016109c59061287b565b60405180910390fd5b60006008600084815260200190815260200160002080546109ee906122a6565b80601f0160208091040260200160405190810160405280929190818152602001828054610a1a906122a6565b8015610a675780601f10610a3c57610100808354040283529160200191610a67565b820191906000526020600020905b815481529060010190602001808311610a4a57829003601f168201915b505050505090506000610a786114db565b90506000815103610a8d578192505050610af1565b600082511115610ac2578082604051602001610aaa9291906128d7565b60405160208183030381529060405292505050610af1565b80610acc856114f2565b604051602001610add9291906128d7565b604051602081830303815290604052925050505b919050565b6000600560008473ffffffffffffffffffffffffffffffffffffffff1673ffffffffffffffffffffffffffffffffffffffff16815260200190815260200160002060008373ffffffffffffffffffffffffffffffffffffffff1673ffffffffffffffffffffffffffffffffffffffff16815260200190815260200160002060009054906101000a900460ff16905092915050565b6000610b94611151565b610b9e60076115c0565b6000610baa60076115d6565b9050610bb684826115e4565b610bc08184611801565b8091505092915050565b610bd2611151565b600073ffffffffffffffffffffffffffffffffffffffff168173ffffffffffffffffffffffffffffffffffffffff1603610c41576040517f08c379a0000000000000000000000000000000000000000000000000000000008152600401610c389061296d565b60405180910390fd5b610c4a8161120c565b50565b60007f01ffc9a7000000000000000000000000000000000000000000000000000000007bffffffffffffffffffffffffffffffffffffffffffffffffffffffff1916827bffffffffffffffffffffffffffffffffffffffffffffffffffffffff1916149050919050565b610cc08161149a565b610cff576040517f08c379a0000000000000000000000000000000000000000000000000000000008152600401610cf690612757565b60405180910390fd5b50565b600033905090565b816004600083815260200190815260200160002060006101000a81548173ffffffffffffffffffffffffffffffffffffffff021916908373ffffffffffffffffffffffffffffffffffffffff160217905550808273ffffffffffffffffffffffffffffffffffffffff16610d7d836106ff565b73ffffffffffffffffffffffffffffffffffffffff167f8c5be1e5ebec7d5bd14f71427d1e84f3dd0314c0f7b2291e5b200ac8c7c3b92560405160405180910390a45050565b600080610dcf836106ff565b90508073ffffffffffffffffffffffffffffffffffffffff168473ffffffffffffffffffffffffffffffffffffffff161480610e115750610e108185610af6565b5b80610e4f57508373ffffffffffffffffffffffffffffffffffffffff16610e3784610507565b73ffffffffffffffffffffffffffffffffffffffff16145b91505092915050565b8273ffffffffffffffffffffffffffffffffffffffff16610e78826106ff565b73ffffffffffffffffffffffffffffffffffffffff1614610ece576040517f08c379a0000000000000000000000000000000000000000000000000000000008152600401610ec5906129ff565b60405180910390fd5b600073ffffffffffffffffffffffffffffffffffffffff168273ffffffffffffffffffffffffffffffffffffffff1603610f3d576040517f08c379a0000000000000000000000000000000000000000000000000000000008152600401610f3490612a91565b60405180910390fd5b610f4a838383600161186e565b8273ffffffffffffffffffffffffffffffffffffffff16610f6a826106ff565b73ffffffffffffffffffffffffffffffffffffffff1614610fc0576040517f08c379a0000000000000000000000000000000000000000000000000000000008152600401610fb7906129ff565b60405180910390fd5b6004600082815260200190815260200160002060006101000a81549073ffffffffffffffffffffffffffffffffffffffff02191690556001600360008573ffffffffffffffffffffffffffffffffffffffff1673ffffffffffffffffffffffffffffffffffffffff168152602001908152602001600020600082825403925050819055506001600360008473ffffffffffffffffffffffffffffffffffffffff1673ffffffffffffffffffffffffffffffffffffffff16815260200190815260200160002060008282540192505081905550816002600083815260200190815260200160002060006101000a81548173ffffffffffffffffffffffffffffffffffffffff021916908373ffffffffffffffffffffffffffffffffffffffff160217905550808273ffffffffffffffffffffffffffffffffffffffff168473ffffffffffffffffffffffffffffffffffffffff167fddf252ad1be2c89b69c2b068fc378daa952ba7f163c4a11628f55a4df523b3ef60405160405180910390a461114c8383836001611874565b505050565b611159610d02565b73ffffffffffffffffffffffffffffffffffffffff16611177610850565b73ffffffffffffffffffffffffffffffffffffffff16146111cd576040517f08c379a00000000000000000000000000000000000000000000000000000000081526004016111c490612afd565b60405180910390fd5b565b60006002600083815260200190815260200160002060009054906101000a900473ffffffffffffffffffffffffffffffffffffffff169050919050565b6000600660009054906101000a900473ffffffffffffffffffffffffffffffffffffffff16905081600660006101000a81548173ffffffffffffffffffffffffffffffffffffffff021916908373ffffffffffffffffffffffffffffffffffffffff1602179055508173ffffffffffffffffffffffffffffffffffffffff168173ffffffffffffffffffffffffffffffffffffffff167f8be0079c531659141344cd1fd0a4f28419497f9722a3daafe3b4186f6b6457e060405160405180910390a35050565b8173ffffffffffffffffffffffffffffffffffffffff168373ffffffffffffffffffffffffffffffffffffffff1603611340576040517f08c379a000000000000000000000000000000000000000000000000000000000815260040161133790612b69565b60405180910390fd5b80600560008573ffffffffffffffffffffffffffffffffffffffff1673ffffffffffffffffffffffffffffffffffffffff16815260200190815260200160002060008473ffffffffffffffffffffffffffffffffffffffff1673ffffffffffffffffffffffffffffffffffffffff16815260200190815260200160002060006101000a81548160ff0219169083151502179055508173ffffffffffffffffffffffffffffffffffffffff168373ffffffffffffffffffffffffffffffffffffffff167f17307eab39ab6107e8899845ad3d59bd9653f200f220920489ca2b5937696c31836040516114319190611c2b565b60405180910390a3505050565b611449848484610e58565b6114558484848461187a565b611494576040517f08c379a000000000000000000000000000000000000000000000000000000000815260040161148b90612bfb565b60405180910390fd5b50505050565b60008073ffffffffffffffffffffffffffffffffffffffff166114bc836111cf565b73ffffffffffffffffffffffffffffffffffffffff1614159050919050565b606060405180602001604052806000815250905090565b60606000600161150184611a01565b01905060008167ffffffffffffffff8111156115205761151f611e80565b5b6040519080825280601f01601f1916602001820160405280156115525781602001600182028036833780820191505090505b509050600082602001820190505b6001156115b5578080600190039150507f3031323334353637383961626364656600000000000000000000000000000000600a86061a8153600a85816115a9576115a8612c1b565b5b04945060008503611560575b819350505050919050565b6001816000016000828254019250508190555050565b600081600001549050919050565b600073ffffffffffffffffffffffffffffffffffffffff168273ffffffffffffffffffffffffffffffffffffffff1603611653576040517f08c379a000000000000000000000000000000000000000000000000000000000815260040161164a90612c96565b60405180910390fd5b61165c8161149a565b1561169c576040517f08c379a000000000000000000000000000000000000000000000000000000000815260040161169390612d02565b60405180910390fd5b6116aa60008383600161186e565b6116b38161149a565b156116f3576040517f08c379a00000000000000000000000000000000000000000000000000000000081526004016116ea90612d02565b60405180910390fd5b6001600360008473ffffffffffffffffffffffffffffffffffffffff1673ffffffffffffffffffffffffffffffffffffffff16815260200190815260200160002060008282540192505081905550816002600083815260200190815260200160002060006101000a81548173ffffffffffffffffffffffffffffffffffffffff021916908373ffffffffffffffffffffffffffffffffffffffff160217905550808273ffffffffffffffffffffffffffffffffffffffff16600073ffffffffffffffffffffffffffffffffffffffff167fddf252ad1be2c89b69c2b068fc378daa952ba7f163c4a11628f55a4df523b3ef60405160405180910390a46117fd600083836001611874565b5050565b61180a8261149a565b611849576040517f08c379a000000000000000000000000000000000000000000000000000000000815260040161184090612d94565b60405180910390fd5b806008600084815260200190815260200160002090816118699190612639565b505050565b50505050565b50505050565b600061189b8473ffffffffffffffffffffffffffffffffffffffff16611b54565b156119f4578373ffffffffffffffffffffffffffffffffffffffff1663150b7a026118c4610d02565b8786866040518563ffffffff1660e01b81526004016118e69493929190612e09565b6020604051808303816000875af192505050801561192257506040513d601f19601f8201168201806040525081019061191f9190612e6a565b60015b6119a4573d8060008114611952576040519150601f19603f3d011682016040523d82523d6000602084013e611957565b606091505b50600081510361199c576040517f08c379a000000000000000000000000000000000000000000000000000000000815260040161199390612bfb565b60405180910390fd5b805181602001fd5b63150b7a0260e01b7bffffffffffffffffffffffffffffffffffffffffffffffffffffffff1916817bffffffffffffffffffffffffffffffffffffffffffffffffffffffff1916149150506119f9565b600190505b949350505050565b600080600090507a184f03e93ff9f4daa797ed6e38ed64bf6a1f0100000000000000008310611a5f577a184f03e93ff9f4daa797ed6e38ed64bf6a1f0100000000000000008381611a5557611a54612c1b565b5b0492506040810190505b6d04ee2d6d415b85acef81000000008310611a9c576d04ee2d6d415b85acef81000000008381611a9257611a91612c1b565b5b0492506020810190505b662386f26fc100008310611acb57662386f26fc100008381611ac157611ac0612c1b565b5b0492506010810190505b6305f5e1008310611af4576305f5e1008381611aea57611ae9612c1b565b5b0492506008810190505b6127108310611b19576127108381611b0f57611b0e612c1b565b5b0492506004810190505b60648310611b3c5760648381611b3257611b31612c1b565b5b0492506002810190505b600a8310611b4b576001810190505b80915050919050565b6000808273ffffffffffffffffffffffffffffffffffffffff163b119050919050565b6000604051905090565b600080fd5b600080fd5b60007fffffffff0000000000000000000000000000000000000000000000000000000082169050919050565b611bc081611b8b565b8114611bcb57600080fd5b50565b600081359050611bdd81611bb7565b92915050565b600060208284031215611bf957611bf8611b81565b5b6000611c0784828501611bce565b91505092915050565b60008115159050919050565b611c2581611c10565b82525050565b6000602082019050611c406000830184611c1c565b92915050565b600081519050919050565b600082825260208201905092915050565b60005b83811015611c80578082015181840152602081019050611c65565b60008484015250505050565b6000601f19601f8301169050919050565b6000611ca882611c46565b611cb28185611c51565b9350611cc2818560208601611c62565b611ccb81611c8c565b840191505092915050565b60006020820190508181036000830152611cf08184611c9d565b905092915050565b6000819050919050565b611d0b81611cf8565b8114611d1657600080fd5b50565b600081359050611d2881611d02565b92915050565b600060208284031215611d4457611d43611b81565b5b6000611d5284828501611d19565b91505092915050565b600073ffffffffffffffffffffffffffffffffffffffff82169050919050565b6000611d8682611d5b565b9050919050565b611d9681611d7b565b82525050565b6000602082019050611db16000830184611d8d565b92915050565b611dc081611d7b565b8114611dcb57600080fd5b50565b600081359050611ddd81611db7565b92915050565b60008060408385031215611dfa57611df9611b81565b5b6000611e0885828601611dce565b9250506020611e1985828601611d19565b9150509250929050565b600080600060608486031215611e3c57611e3b611b81565b5b6000611e4a86828701611dce565b9350506020611e5b86828701611dce565b9250506040611e6c86828701611d19565b9150509250925092565b600080fd5b600080fd5b7f4e487b7100000000000000000000000000000000000000000000000000000000600052604160045260246000fd5b611eb882611c8c565b810181811067ffffffffffffffff82111715611ed757611ed6611e80565b5b80604052505050565b6000611eea611b77565b9050611ef68282611eaf565b919050565b600067ffffffffffffffff821115611f1657611f15611e80565b5b611f1f82611c8c565b9050602081019050919050565b82818337600083830152505050565b6000611f4e611f4984611efb565b611ee0565b905082815260208101848484011115611f6a57611f69611e7b565b5b611f75848285611f2c565b509392505050565b600082601f830112611f9257611f91611e76565b5b8135611fa2848260208601611f3b565b91505092915050565b600060208284031215611fc157611fc0611b81565b5b600082013567ffffffffffffffff811115611fdf57611fde611b86565b5b611feb84828501611f7d565b91505092915050565b60006020828403121561200a57612009611b81565b5b600061201884828501611dce565b91505092915050565b61202a81611cf8565b82525050565b60006020820190506120456000830184612021565b92915050565b61205481611c10565b811461205f57600080fd5b50565b6000813590506120718161204b565b92915050565b6000806040838503121561208e5761208d611b81565b5b600061209c85828601611dce565b92505060206120ad85828601612062565b9150509250929050565b600067ffffffffffffffff8211156120d2576120d1611e80565b5b6120db82611c8c565b9050602081019050919050565b60006120fb6120f6846120b7565b611ee0565b90508281526020810184848401111561211757612116611e7b565b5b612122848285611f2c565b509392505050565b600082601f83011261213f5761213e611e76565b5b813561214f8482602086016120e8565b91505092915050565b6000806000806080858703121561217257612171611b81565b5b600061218087828801611dce565b945050602061219187828801611dce565b93505060406121a287828801611d19565b925050606085013567ffffffffffffffff8111156121c3576121c2611b86565b5b6121cf8782880161212a565b91505092959194509250565b600080604083850312156121f2576121f1611b81565b5b600061220085828601611dce565b925050602061221185828601611dce565b9150509250929050565b6000806040838503121561223257612231611b81565b5b600061224085828601611dce565b925050602083013567ffffffffffffffff81111561226157612260611b86565b5b61226d85828601611f7d565b9150509250929050565b7f4e487b7100000000000000000000000000000000000000000000000000000000600052602260045260246000fd5b600060028204905060018216806122be57607f821691505b6020821081036122d1576122d0612277565b5b50919050565b7f4552433732313a20617070726f76616c20746f2063757272656e74206f776e6560008201527f7200000000000000000000000000000000000000000000000000000000000000602082015250565b6000612333602183611c51565b915061233e826122d7565b604082019050919050565b6000602082019050818103600083015261236281612326565b9050919050565b7f4552433732313a20617070726f76652063616c6c6572206973206e6f7420746f60008201527f6b656e206f776e6572206f7220617070726f76656420666f7220616c6c000000602082015250565b60006123c5603d83611c51565b91506123d082612369565b604082019050919050565b600060208201905081810360008301526123f4816123b8565b9050919050565b7f4552433732313a2063616c6c6572206973206e6f7420746f6b656e206f776e6560008201527f72206f7220617070726f76656400000000000000000000000000000000000000602082015250565b6000612457602d83611c51565b9150612462826123fb565b604082019050919050565b600060208201905081810360008301526124868161244a565b9050919050565b60008190508160005260206000209050919050565b60006020601f8301049050919050565b600082821b905092915050565b6000600883026124ef7fffffffffffffffffffffffffffffffffffffffffffffffffffffffffffffffff826124b2565b6124f986836124b2565b95508019841693508086168417925050509392505050565b6000819050919050565b600061253661253161252c84611cf8565b612511565b611cf8565b9050919050565b6000819050919050565b6125508361251b565b61256461255c8261253d565b8484546124bf565b825550505050565b600090565b61257961256c565b612584818484612547565b505050565b5b818110156125a85761259d600082612571565b60018101905061258a565b5050565b601f8211156125ed576125be8161248d565b6125c7846124a2565b810160208510156125d6578190505b6125ea6125e2856124a2565b830182612589565b50505b505050565b600082821c905092915050565b6000612610600019846008026125f2565b1980831691505092915050565b600061262983836125ff565b9150826002028217905092915050565b61264282611c46565b67ffffffffffffffff81111561265b5761265a611e80565b5b61266582546122a6565b6126708282856125ac565b600060209050601f8311600181146126a35760008415612691578287015190505b61269b858261261d565b865550612703565b601f1984166126b18661248d565b60005b828110156126d9578489015182556001820191506020850194506020810190506126b4565b868310156126f657848901516126f2601f8916826125ff565b8355505b6001600288020188555050505b505050505050565b7f4552433732313a20696e76616c696420746f6b656e2049440000000000000000600082015250565b6000612741601883611c51565b915061274c8261270b565b602082019050919050565b6000602082019050818103600083015261277081612734565b9050919050565b7f4552433732313a2061646472657373207a65726f206973206e6f74206120766160008201527f6c6964206f776e65720000000000000000000000000000000000000000000000602082015250565b60006127d3602983611c51565b91506127de82612777565b604082019050919050565b60006020820190508181036000830152612802816127c6565b9050919050565b7f4552433732314d657461646174613a2055524920717565727920666f72206e6f60008201527f6e6578697374656e7420746f6b656e0000000000000000000000000000000000602082015250565b6000612865602f83611c51565b915061287082612809565b604082019050919050565b6000602082019050818103600083015261289481612858565b9050919050565b600081905092915050565b60006128b182611c46565b6128bb818561289b565b93506128cb818560208601611c62565b80840191505092915050565b60006128e382856128a6565b91506128ef82846128a6565b91508190509392505050565b7f4f776e61626c653a206e6577206f776e657220697320746865207a65726f206160008201527f6464726573730000000000000000000000000000000000000000000000000000602082015250565b6000612957602683611c51565b9150612962826128fb565b604082019050919050565b600060208201905081810360008301526129868161294a565b9050919050565b7f4552433732313a207472616e736665722066726f6d20696e636f72726563742060008201527f6f776e6572000000000000000000000000000000000000000000000000000000602082015250565b60006129e9602583611c51565b91506129f48261298d565b604082019050919050565b60006020820190508181036000830152612a18816129dc565b9050919050565b7f4552433732313a207472616e7366657220746f20746865207a65726f2061646460008201527f7265737300000000000000000000000000000000000000000000000000000000602082015250565b6000612a7b602483611c51565b9150612a8682612a1f565b604082019050919050565b60006020820190508181036000830152612aaa81612a6e565b9050919050565b7f4f776e61626c653a2063616c6c6572206973206e6f7420746865206f776e6572600082015250565b6000612ae7602083611c51565b9150612af282612ab1565b602082019050919050565b60006020820190508181036000830152612b1681612ada565b9050919050565b7f4552433732313a20617070726f766520746f2063616c6c657200000000000000600082015250565b6000612b53601983611c51565b9150612b5e82612b1d565b602082019050919050565b60006020820190508181036000830152612b8281612b46565b9050919050565b7f4552433732313a207472616e7366657220746f206e6f6e20455243373231526560008201527f63656976657220696d706c656d656e7465720000000000000000000000000000602082015250565b6000612be5603283611c51565b9150612bf082612b89565b604082019050919050565b60006020820190508181036000830152612c1481612bd8565b9050919050565b7f4e487b7100000000000000000000000000000000000000000000000000000000600052601260045260246000fd5b7f4552433732313a206d696e7420746f20746865207a65726f2061646472657373600082015250565b6000612c80602083611c51565b9150612c8b82612c4a565b602082019050919050565b60006020820190508181036000830152612caf81612c73565b9050919050565b7f4552433732313a20746f6b656e20616c7265616479206d696e74656400000000600082015250565b6000612cec601c83611c51565b9150612cf782612cb6565b602082019050919050565b60006020820190508181036000830152612d1b81612cdf565b9050919050565b7f4552433732314d6574613a2055524920736574206f66206e6f6e65786973746560008201527f6e7420746f6b656e000000000000000000000000000000000000000000000000602082015250565b6000612d7e602883611c51565b9150612d8982612d22565b604082019050919050565b60006020820190508181036000830152612dad81612d71565b9050919050565b600081519050919050565b600082825260208201905092915050565b6000612ddb82612db4565b612de58185612dbf565b9350612df5818560208601611c62565b612dfe81611c8c565b840191505092915050565b6000608082019050612e1e6000830187611d8d565b612e2b6020830186611d8d565b612e386040830185612021565b8181036060830152612e4a8184612dd0565b905095945050505050565b600081519050612e6481611bb7565b92915050565b600060208284031215612e8057612e7f611b81565b5b6000612e8e84828501612e55565b9150509291505056fea2646970667358221220f9e1e2ad80ab1c64a92ffdfe744d7c7b12837a8027371a96977d67330ef554f664736f6c63430008130033",
  "linkReferences": {},
  "deployedLinkReferences": {}
}